:020000040800F2
:1000000000400020E10600083D070008990D0008A7
:100010003D0700083D070008A90D0008000000008A
:100020000000000000000000000000003D07000884
:100030003D070008000000003D0700083D070008DC
:10004000A10D00083D0700083D0700083D07000816
:100050003D0700083D0700083D0700083D07000870
:100060003D0700083D0700083D0700083D07000860
:100070003D0700083D0700083D0700083D07000850
:100080003D070008A90C00083D0700083D070008CF
:10009000312100083D0700083D0700083D07000822
:1000A0003D0700083D0700083D0700083D07000820
:1000B0003D07000800000000000000003D070008A8
:1000C0003D0700083D0700083D070008000000004C
:1000D0003D0700083D070008310C00083D070008F7
:1000E0003D0700083D0700083D070008000000002C
:1000F0000000000000000000000000000000000000
:100100000000000000000000000000003D070008A3
:100110000000000000000000B10D00080000000019
:1001200000000000000000000000000000000000CF
:1001300000000000000000000000000000000000BF
:100140003D0700083D070008000000000000000017
:10015000000000000000000000000000000000009F
:100160003D0700083D0700083D0700083D0700085F
:100170003D07000800000000000000000000000033
:08018000000000003D0700082B
:1001880010B5054C237833B9044B13B10448AFF3C9
:1001980000800123237010BD4400002000000000EF
:1001A800D437000808B5034B1BB103480349AFF324
:1001B800008008BD00000000D43700084800002077
:1001C80080B483B000AF71B60E4B5B6A7B600E4B98
:1001D8005A687B689A4204D90B4B1B685A1C0A4B15
:1001E8001A60094B1B683B60074B7A685A6061B616
:1001F8003B681A047B68134318460C37BD465DF804
:10020800047B7047004401406000002080B584B042
:1002180000AF174802F014F94FF40030012102F042
:1002280099FE144B1A68144BA3FB02139B0C9BB248
:10023800013BFB814FF6FF737B60FB893B8000230A
:100248003B8100237B8000237B813B46084819467D
:1002580002F0ACF9094B00221A600548002102F0AF
:1002680025FA0348012102F03DFA1037BD4680BD4A
:10027800004401400000002083DE1B436000002092
:1002880080B584B000AF324B1A68324B1A60324BDB
:10029800A1221A70304BB2225A702F4BC3229A7087
:1002A8002D4BFF22DA702C4B01221A712A4B0022A7
:1002B8005A71294B00229A71274BFF22DA71264B7B
:1002C80000221A81244B00225A81234B40F6C23265
:1002D8009A81214B0322DA811F4B20221A611E4882
:1002E800142100F03DF802461B4B5A6119480421BD
:1002F80000F036F80246184B9A61174B7B600023D2
:10030800FB600BE07B681B781448194600F02EFC54
:100318007B6801337B60FB680133FB60FB681B2B48
:10032800F0D90C4B3B600023BB600BE03B681B78AB
:100338000A48194600F01AFC3B6801333B60BB6869
:100348000133BB60BB68032BF0D91037BD4680BDB5
:10035800B0040020680000207000002090000020F9
:1003680080B487B000AF7860396000237B613B6858
:100378005B083B613A68444B1340002B03DA013BAE
:1003880063F001030133FB60404B4FF6FF721A60C4
:100398003E4B1A683E4B1A6055E03B69B3F5B47F93
:1003A80028BF4FF4B4737B613A697B69D31A3B6108
:1003B8007B685A1C7A601B781A46354B1B681A44AE
:1003C800334B1A607B685A1C7A601B781B021A46EA
:1003D8002F4B1B681A442E4B1A602C4B1A682C4B57
:1003E8001B681A44294B1A607B69013B7B617B6956
:1003F800002BDDD1FB68012B13D13B69002B10D1F9
:100408007B685A1C7A601B781A46214B1B681A4471
:100418001F4B1A601D4B1A681D4B1B681A441B4B57
:100428001A601B4B1B689AB2194B1B681B0C1A44A9
:10043800174B1A60154B1B689AB2144B1B681B0CA0
:100448001A44124B1A603B69002BA6D1104B1B684B
:100458009AB20F4B1B681B0C1A440D4B1A600B4BBE
:100468001B689AB2094B1B681B0C1A44074B1A608D
:10047800064B1B681A04064B1B68134318461C37A7
:10048800BD465DF8047B7047010000806C000020C9
:100498008C00002080B500AF1E4B1E4AD2F8882081
:1004A80042F47002C3F888201B4B1B4A126842F0C2
:1004B80001021A60184A184B5968184B0B405360D0
:1004C800154A154B1B6823F0847323F4803313609B
:1004D800114B114A126822F480221A600E4B0E4A00
:1004E800526822F4FE025A600B4B0B4AD26A22F081
:1004F8000F02DA62084A084B196B094B0B40136369
:10050800054B00229A6000F077F8024B4FF000622A
:100518009A6080BD00ED00E0001002400CC07FF83A
:10052800CCFC00FF80B485B000AF0023FB60002343
:10053800BB6000237B6000233B602A4B5B6803F0B1
:100548000C03FB60FB68042B07D0082B09D0002B99
:100558002FD1254B254A1A602FE0234B234A1A60D6
:100568002BE0204B5B6803F47013BB601D4B5B688A
:1005780003F480337B60BB689B0C0233BB607B68F1
:10058800002B06D1BB681A4A02FB03F2164B1A600D
:1005980013E0144BDB6A03F00F0301333B60134A8B
:1005A8003B68B2FBF3F3BA6802FB03F20E4B1A6026
:1005B80003E00D4B0D4A1A6000BF0A4B5B6803F05D
:1005C800F0031B090B4AD35CDBB2FB60064B1A68CD
:1005D800FB68DA40044B1A601437BD465DF8047BAB
:1005E800704700BF001002400000002000127A008F
:1005F80000093D000400002080B483B000AF002350
:100608007B6000233B60324B314A126842F48032EF
:100618001A602F4B1B6803F400333B607B6801337F
:100628007B603B68002B03D17B68B3F5A04FF0D10A
:10063800274B1B6803F40033002B02D001233B60D7
:1006480001E000233B603B68012B3CD1214B122287
:100658001A601F4B1E4A52685A601D4B1C4A52684A
:100668005A601B4B1A4A526842F480625A60184B0F
:10067800174A526822F47C125A60154B144A526881
:1006880042F4A0225A60124B114A126842F080725A
:100698001A6000BF0E4B1B6803F00073002BF9D0E3
:1006A8000B4B0B4A526822F003025A60084B084A67
:1006B800526842F002025A6000BF054B5B6803F0C3
:1006C8000C03082BF9D10C37BD465DF8047B704745
:1006D8000010024000200240DFF840D0002100F066
:1006E80004B80F4B5B58435004310E480E4B421868
:1006F8009A42FFF4F6AF0D4A00F003B8002342F81F
:10070800043B0B4B9A42FFF4F9AFFFF7C3FE03F02B
:1007180037F800F0F3FAFFF7FEBF000000400020B2
:10072800F4370008000000204400002044000020A6
:1007380068060020FFF7FEBF80B588B000AF282309
:10074800BB6103237B7702233B770023BB7702231C
:10075800FB7707F118035448194602F0E5FC10230B
:10076800BB6103237B7702233B770123BB770123FC
:10077800FB7707F118034C48194602F0D5FC4FF4F3
:100788000043BB6103237B7701233B770023BB77BF
:100798000023FB7744480321062202F05DFD42480E
:1007A8000421062202F058FD3F480521062202F0E6
:1007B80053FD4FF40040012102F0EAFB0023BB8007
:1007C8004FF48273FB804FF470633B8100237B817D
:1007D8000123BB814FF40073FB8110233B8200236C
:1007E8007B820723BB823B1D3048194602F012F872
:1007F8002E48012102F098F84FF42043BB610323EF
:100808007B7702233B770023BB770223FB7707F133
:1008180018032548194602F087FC4FF48043BB6152
:1008280003237B7702233B770123BB770123FB77E5
:1008380007F118031C48194602F076FC1A480D21E6
:10084800052202F009FD18480E21052202F004FDD8
:1008580015480F21052202F0FFFC4FF480400121CA
:1008680002F096FB0023BB804FF48273FB804FF4A9
:1008780070633B8100237B810123BB814FF40073AC
:10088800FB8110233B8200237B820723BB823B1D15
:100898000748194601F0BEFF0548012102F044F857
:1008A8002037BD4680BD00BF00040048003C004022
:1008B8000038004080B582B000AF78600B467B807E
:1008C80000BF7868022102F06BF80346002BF8D0CD
:1008D8007B887868194602F047F800BF78680121DC
:1008E80002F05EF80346002BF8D0786802F04AF868
:1008F800034618460837BD4680BD00BF80B596B090
:1009080000AF734B7B657B6D4FF40072C3F8002218
:100918007B6DD3F800227B6DC3F80C2400237A6D1D
:10092800C2F808327A6DC2F8043200237A6DC2F830
:1009380014347A6DC2F810347B6D0022C3F81C247D
:100948004FF40030012102F023FB0120012102F0C5
:10095800E3FA4FF090400221072202F07DFC4FF0AD
:1009680090400F21072202F077FC022387F83830E5
:10097800032387F83930002387F83A30012387F8B2
:100988003B3004237B6307F134034FF09040194652
:1009980002F0CAFB4FF400437B6307F134034FF0C6
:1009A8009040194602F0C0FB4FF4E133FB6300238B
:1009B8003B6400237B640023BB6400233B650C235A
:1009C800FB6407F13C034348194601F0D7FB424852
:1009D80002F088FC414BBB6010233B614FF400736D
:1009E800BB820023BB618023FB6100233B620023A1
:1009F8007B620023BB624FF40053FB6200233B631E
:100A080007F108033448194602F028FD324800214E
:100A180002F080FD30480221012202F097FD4FF4D8
:100A2800604002F0DBFD2C48002102F057FD294808
:100A38008021012201F08AFC294802F053FC294B4D
:100A4800BB607B6D03F50373FB6000233B614FF4D0
:100A58000073BB820023BB618023FB6100233B62E0
:100A680000237B622023BB624FF40053FB62002308
:100A78003B6307F108031A48194602F0EFFC4FF4EC
:100A8800600002F0ABFD1648012102F027FD114875
:100A98004021012201F05AFC114802F049FD0346A9
:100AA8001A467B6DC3F8182411233B7109237B7107
:100AB8000023BB710123FB713B1D184602F0D4FAD9
:100AC8000448012101F014FC5837BD4680BD00BF21
:100AD800900000200044004080000240284400406C
:100AE8006C0002402444004080B582B000AF7860BA
:100AF8007B68D3F81C34002B33D11B4B7A68D2F8AF
:100B0800082279680A44DA607B68D3F804227B6893
:100B1800D3F808329A420FD9134B7A68D2F80412E4
:100B28007A68D2F808228A1A5A607B68D3F80422B5
:100B38007B68C3F808220CE00B4B7A68D2F80012E5
:100B48007A68D2F808228A1A5A607B680022C3F8A9
:100B580008227B680122C3F81C240348012102F003
:100B6800BDFC0837BD4680BD8000024080B582B01C
:100B780000AF78600B46FB707B68D3F804327A6864
:100B8800F978D1547B68D3F8043201337A68D2F803
:100B98000022B3FBF2F102FB01F29A1A7B68C3F858
:100BA80004227868FFF7A0FF0837BD4680BD00BF64
:100BB80080B485B000AF78607B68D3F80C247B687C
:100BC800D3F81834D31A7A68134493F80C32FB60BC
:100BD8007B68D3F81834013B7A68C2F81834002BC4
:100BE80005D17B68D3F80C247B68C3F81824FB680C
:100BF80018461437BD465DF8047B704780B483B04F
:100C080000AF7860074B5A687B68D3F818349A426B
:100C18000CBF00230123DBB218460C37BD465DF834
:100C2800047B70476C00024080B582B000AF194B5E
:100C38007B601948802101F0E9FB0346012B25D18F
:100C48007B68D3F808227B68D3F804329A4218D01C
:100C58007B68D3F808327A68D35C0F48194601F0EC
:100C680063FB7B68D3F8083201337A68D2F8002234
:100C7800B3FBF2F102FB01F29A1A7B68C3F808226F
:100C880004E005480549002201F07EFB0837BD460F
:100C980080BD00BF9000002000440040070107000D
:100CA80080B582B000AF134B7B604FF0007002F04C
:100CB8006BFC0346012B0BD14FF0606002F08EFCF9
:100CC8000D48002102F00AFC7B680022C3F81C24AE
:100CD8004FF0807002F082FC7B68D3F804227B68B6
:100CE800D3F808329A4202D07868FFF7FDFE083739
:100CF800BD4680BD900000208000024080B582B0D3
:100D080000AF00237B604FF4407002F09BF94FF472
:100D18000030012102F000F94FF48020012102F097
:100D2800FBF84FF40020012102F0F6F8FFF7FAFB78
:100D380001F02EF9FFF700FDFFF768FAFFF7DEFD77
:100D480000F04AF900F0D6F800F03CF808E007E0B7
:100D58000E48FFF72DFF0346DBB2184600F066FD8C
:100D68000A48FFF74BFF0346002BF1D100F00AF9C0
:100D7800FFF726FA02467B68D21A44F620639A42A5
:100D880002D9FFF77DFAE2E7E1E700BF9000002013
:100D980080B400AFFEE700BF80B400AFFEE700BF3D
:100DA80080B400AFFEE700BF80B500AF0348012163
:100DB80001F0D8FC024800F047F880BD0010004060
:100DC800B004002080B586B000AF1C4801F038FBA5
:100DD8001020012102F0DCF8194B1A68194BA3FB0B
:100DE80002139B0C9BB2013BFB8244F62063BB6061
:100DF800FB8ABB800023BB810023FB800023FB818F
:100E08003B1D0E48194601F0D1FB36233B740723DE
:100E18007B740023BB740123FB7407F1100318468D
:100E280002F022F905480121012201F07BFC034868
:100E3800012101F057FC1837BD4680BD0010004065
:100E48000000002083DE1B4380B483B000AF7860CD
:100E58007B685B695B6A9AB27B685A817B685B894D
:100E68009AB27B681B899BB2D31A9BB29AB27B68F1
:100E78009A817B685A897B681A817B681A697B68C2
:100E88009B891BB21A447B681A617B6893ED007AD0
:100E98007B689B891BB207EE903AF8EEE76AF0EEA2
:100EA800007AC6EEA76ADFED107A66EEA76A7B685D
:100EB800D3ED017AC6EEA76ADFED0C7A66EEA76A73
:100EC8007B68D3ED007A76EEE76ADFED097A66EEA5
:100ED800A77A77EE277A7B68C3ED007A0C37BD4690
:100EE8005DF8047B704700BF000048420000704274
:100EF800CDCCCC3D80B582B000AF204B4FF0000286
:100F08001A601E4B1E4A5A601C4B4FF080425A61B1
:100F18004FF0804001F094FA0120012102F038F8E6
:100F280003233B6002233B710123FB713B464FF0D7
:100F38009040194602F0F8F84FF090400021012245
:100F480002F08AF94FF090400121012202F084F961
:100F58004FF0804001210022002301F015FC4FF0E2
:100F680080404FF6FF7101F0AFFB4FF08040012148
:100F780001F0B8FB0837BD4680BD00BFB0040020B3
:100F88000080CF4480B500AF124B1B880120194662
:100F980000F0E8FA0F4B5B880220194600F0E2FAED
:100FA8000C4B9B880320194600F0DCFA094BDB88C0
:100FB8000420194600F0D6FA064B1B89052019466D
:100FC80000F0D0FA034B5B890620194600F0CAFAF4
:100FD80080BD00BF1005002080B582B000AF924BE5
:100FE8004FF400721A80904B4FF400725A808E4B67
:100FF8004FF400729A808C4B7C22DA808A4B2A222A
:101008001A81894B20225A81884B1B68874A92880B
:101018009A61874B1B68864A92889A61854B1B6840
:10102800844A92889A61844B1B68834A92889A61A1
:10103800824B1B68814A92889A61814B1B68804A5F
:1010480092889A617F4B1B687E4A92881A857E4BEC
:101058001B687D4A92881A857C4B1B687B4A92885C
:101068001A857B4B1B687A4A92889A6100237B60B9
:1010780000237B6002E07B6801337B607A6842F280
:101088000F739A42F7DD734B1B68724A92881A8570
:1010980000237B6002E07B6801337B607A6842F260
:1010A8000F739A42F7DD6B4B1B686A4A92889A6104
:1010B80000237B6002E07B6801337B607A6842F240
:1010C8000F739A42F7DD644B1B681B8A9AB2624B16
:1010D8009B8813409BB2002B54D0544B1B68534A37
:1010E80092881A8500237B6002E07B6801337B606D
:1010F8007A6842F20F739A42F7DD58484FF400516C
:10110800FFF7D8FB00237B6002E07B6801337B603C
:101118007A6842F20F739A42F7DD444B1B68434AE0
:1011280092889A6100237B6002E07B6801337B60D0
:101138007A6842F20F739A42F7DD3C4B1B683B4AD0
:1011480092881A8500237B6002E07B6801337B600C
:101158007A6842F20F739A42F7DD404841F603017C
:10116800FFF7A8FB00237B6002E07B6801337B600C
:101178007A6842F20F739A42F7DD2C4B1B682B4AB0
:1011880092889A61364B1B681B8A9AB2344B9B88AB
:1011980013409BB2002B72D0254B1B68244A9288BF
:1011A8001A8500237B6002E07B6801337B607A68E4
:1011B80042F20F739A42F7DD28484FF40051FFF7C7
:1011C80079FB00237B6002E07B6801337B607A68EF
:1011D80042F20F739A42F7DD154B1B68144A928846
:1011E8009A6100237B6002E07B6801337B607A6848
:1011F80042F20F739A42F7DD0D4B1B680C4A928836
:101208001A8500237B6002E07B6801337B607A6883
:1012180042F20F739A42F7DD104841F60301FFF7D7
:1012280049FB00237B6020E01005002024050020F6
:10123800340500202C050020C80400203C050020AF
:10124800E8040020F8040020F0040020D80400205E
:10125800E00400201C0500200005002000380040A4
:10126800D00400207B6801337B607A6842F20F73F8
:101278009A42F7DD9A4B1B68994A92889A61994B72
:101288001B681B8A9AB2974B9B8813409BB2002B12
:1012980054D0954B1B68944A92881A8500237B602A
:1012A80002E07B6801337B607A6842F20F739A42EE
:1012B800F7DD8E484FF40051FFF7FCFA00237B60FE
:1012C80002E07B6801337B607A6842F20F739A42CE
:1012D800F7DD854B1B68844A92889A6100237B60FE
:1012E80002E07B6801337B607A6842F20F739A42AE
:1012F800F7DD7D4B1B687C4A92881A8500237B604A
:1013080002E07B6801337B607A6842F20F739A428D
:10131800F7DD764841F60301FFF7CCFA00237B603E
:1013280002E07B6801337B607A6842F20F739A426D
:10133800F7DD6D4B1B686C4A92889A616C4B1B6891
:101348006B4A92881A8500237B6002E07B68013330
:101358007B607A6842F20F739A42F7DD63484FF474
:101368004841FFF7A7FA00237B6002E07B6801335E
:101378007B607A6842F20F739A42F7DD5C4B1B6818
:101388005B4A92889A6100237B6002E07B680133A4
:101398007B607A6842F20F739A42F7DD544B1B6800
:1013A800534A92881A8500237B6002E07B680133E8
:1013B8007B607A6842F20F739A42F7DD4B484DF230
:1013C8000301FFF777FA00237B6002E07B680133B3
:1013D8007B607A6842F20F739A42F7DD444B1B68D0
:1013E800434A92889A61434B1B68424A92881A85FD
:1013F80000237B6002E07B6801337B607A6842F2FD
:101408000F739A42F7DD39484FF44841FFF752FA13
:1014180000237B6002E07B6801337B607A6842F2DC
:101428000F739A42F7DD334B1B68324A92889A61F0
:1014380000237B6002E07B6801337B607A6842F2BC
:101448000F739A42F7DD2B4B1B682A4A92881A853C
:1014580000237B6002E07B6801337B607A6842F29C
:101468000F739A42F7DD21484DF20301FFF722FA84
:1014780000237B6002E07B6801337B607A6842F27C
:101488000F739A42F7DD1B4B1B681A4A92889A61C0
:10149800194B1B68184A92881A8500237B6002E062
:1014A8007B6801337B607A6842F20F739A42F7DDFA
:1014B8000E484FF44841FFF7FDF900237B6002E036
:1014C8007B6801337B607A6842F20F739A42F7DDDA
:1014D800094B1B68084A92889A6100237B6010E0D8
:1014E80034050020080500202C05002000380040A5
:1014F800C80400203C050020E80400207B68013374
:101508007B607A6842F20F739A42F7DD134B1B68CF
:10151800124A92881A8500237B6002E07B680133B7
:101528007B607A6842F20F739A42F7DD0C484DF2FD
:101538000301FFF7BFF900237B6002E07B680133FA
:101548007B607A6842F20F739A42F7DD034B1B689F
:10155800024A92889A610837BD4680BDE804002097
:101568000038004080B584B000AF02460B46FA71DF
:10157800BB800023FB60FB79013B052B00F2158142
:1015880001A252F823F000BFA91500080B160008A5
:101598006D160008CF1600081B170008671700080B
:1015A800BB8843F48063BB80814B1B681B8A9AB25B
:1015B8007F4B9B8813409BB2002B21D07D4B1B682F
:1015C8007C4A92881A850023FB6002E0FB6801339D
:1015D800FB60FB68632BF9DDBB8877481946FFF78A
:1015E80069F90023FB6002E0FB680133FB60FB68DC
:1015F800632BF9DD6F4B1B686E4A92889A61D4E0C1
:10160800D3E0BB8843F48063BB806C4B1B681B8AA8
:101618009AB26A4B9B8813409BB2002B21D0684B2F
:101628001B68674A92881A850023FB6002E0FB6802
:101638000133FB60FB68632BF9DDBB885E48194604
:10164800FFF738F90023FB6002E0FB680133FB6019
:10165800FB68632BF9DD5A4B1B68594A92889A61DB
:10166800A3E0A2E0BB8843F48063BB80554B1B68B2
:101678001B8A9AB2534B9B8813409BB2002B21D0F4
:10168800514B1B68504A92881A850023FB6002E080
:10169800FB680133FB60FB68632BF9DDBB884648B8
:1016A8001946FFF707F90023FB6002E0FB680133E6
:1016B800FB60FB68632BF9DD434B1B68424A928849
:1016C8009A6172E071E0BB8843F4C053BB803F4B22
:1016D8001B683E4A92881A850023FB6002E0FB687B
:1016E8000133FB60FB68632BF9DDBB883248194680
:1016F800FFF7E0F80023FB6002E0FB680133FB60C2
:10170800FB68632BF9DD314B1B68304A92889A617C
:101718004BE0BB8843F4C053BB802D4B1B682C4A5D
:1017280092881A850023FB6002E0FB680133FB60A6
:10173800FB68632BF9DDBB881F481946FFF7BAF829
:101748000023FB6002E0FB680133FB60FB68632B4E
:10175800F9DD1F4B1B681E4A92889A6125E0BB88F9
:1017680043F4C053BB801B4B1B681A4A92881A85E6
:101778000023FB6002E0FB680133FB60FB68632B1E
:10178800F9DDBB880C481946FFF794F80023FB6085
:1017980002E0FB680133FB60FB68632BF9DD0D4B4E
:1017A8001B680C4A92889A6100BF1037BD4680BDFD
:1017B800000500202405002000380040D004002047
:1017C80034050020080500202C050020C80400204E
:1017D8003C050020E804002080B400AF114B5B8872
:1017E8001A4640F6C2339A4218D10E4B9A8B0E4BCA
:1017F8001A800C4BDA8B0C4B5A800A4B1A8C0A4B0A
:101808009A80084B5A8C084BDA80064B9A8C064B08
:101818001A81044BDA8C044B5A8100BFBD465DF82F
:10182800047B7047440500201005002090B585B062
:1018380000AF0346FB71014B1B7801E04405002013
:10184800FF2B00F29D8301A252F823F0551C0008DB
:10185800711C00088D1C0008A91C0008C51C000884
:10186800E11C0008EF1C0008FD1C0008191D0008F9
:10187800291D0008451D0008551D0008811D000888
:101888008F1D0008A51D0008B31D0008D91D0008FC
:10189800E71D0008FD1D0008131E00083D1F000875
:1018A800891F0008891F0008891F0008891F000870
:1018B800891F0008891F0008891F0008891F000860
:1018C800891F0008891F0008891F0008891F000850
:1018D800891F0008891F0008891F0008891F000840
:101C2800891F0008891F0008891F0008431E000833
:101C38005F1E00087B1E0008971E0008B31E0008E0
:101C4800C11E0008E11E0008F71E0008FB79A12B41
:101C580006D19F4B01221A709D4BFA791A728FE1B7
:101C68009B4B00221A708BE1FB79B22B06D1984B63
:101C780002221A70964BFA795A7281E1944B00222B
:101C88001A707DE1FB79C32B06D1914B03221A70A0
:101C98008F4BFA799A7273E18D4B00221A706FE1BB
:101CA800FB79FF2B06D18A4B04221A70884BFA79EC
:101CB800DA7265E1864B00221A7061E1FB79012B2B
:101CC80006D1834B05221A70814BFA791A7357E1B2
:101CD8007F4B00221A7053E17D4B06221A707C4B11
:101CE800FA795A734CE17A4B07221A70784BFA79D1
:101CF8009A7345E1FB79FF2B06D1754B08221A70C0
:101D0800734BFA79DA733BE1714B00221A7037E1B1
:101D18006F4B09221A70FB799AB26D4B1A822FE128
:101D28006B4B0A221A706A4B1A8AFB799BB21B0208
:101D38009BB213449AB2664B1A8221E1644B0B2280
:101D48001A70FB799AB2624B5A8219E1604B5A8A2F
:101D5800FB799BB21B029BB213449AB25C4B5A822A
:101D68005B4B5B8A002B03D1594B0C221A7007E19D
:101D7800574B00221A7003E1554B0D221A70544B31
:101D8800FA791A75FCE0524B0E221A70504BFA7908
:101D98005A754F4B9A8A4E4B5A80F1E04C4B0F22A2
:101DA8001A704B4BFA799A75EAE0494BFA79DA7569
:101DB800474BDA8A464B9A80454B9B88032B03D1C5
:101DC800434B10221A70DBE0414B00221A70D7E017
:101DD8003F4B11221A70FA793D4B9A61D0E03C4B87
:101DE80012221A703A4B9A69FB791B021A44384B33
:101DF8009A61C5E0364B13221A70354B9A69FB7904
:101E08001B041A44324B9A61BAE0314BF8221A701B
:101E18002F4B9A69FB791B061A442D4B9A612C4B60
:101E28009B69A3F11C022A4B9A622A481421FEF7E7
:101E380097FA0246264B1A63A2E0254B93F83030F6
:101E4800FA799A4203D1224BF9221A7098E0204B72
:101E580000221A7094E01E4B93F83130FA799A42B6
:101E680003D11B4BFA221A708AE0194B00221A7010
:101E780086E0174B93F83230FA799A4203D1144B23
:101E8800FB221A707CE0124B00221A7078E0104B8B
:101E980093F83330FA799A4203D10D4BFC221A7029
:101EA8006EE00B4B00221A706AE0FA79084BDA628E
:101EB800074BFD221A7063E0054BDA6AFB791B02B7
:101EC8001A44034BDA62024BFE221A7058E000BF34
:101ED800440500204C0500202B4BDA6AFB791B04D3
:101EE8001A44294BDA62284BFF221A7048E0264B25
:101EF800DA6AFB791B061A44234BDA62224B142256
:101F08001A70214B9B6A002B10D11F4BDC6A1E4BA9
:101F18009B6A1E481946FEF723FA03469C4201D1E4
:101F2800FFF75AFC184B00221A7029E0164B0022C2
:101F3800DA8025E0144BDB881A46144B1344FA79EF
:101F48001A70114BDB8801339AB20F4BDA800E4BB3
:101F5800DB881A460C4B9B6A9A4210D10A4B9B6A43
:101F68000A481946FEF7FCF9F860074BDA6AFB687D
:101F78009A4201D1FFF730FC034B00221A7000BFD0
:101F88001437BD4690BD00BF440500206005002001
:101F980080B500AF4FF0904010210022354B00F083
:101FA80089F8344B1B68334A92881A854FF0904061
:101FB8004FF480710022304B00F07CF84FF09040D5
:101FC8004FF4007100222D4B00F074F84FF0904050
:101FD8004FF4806100222A4B00F06CF84FF09040DB
:101FE8004FF400610022274B00F064F84FF0904056
:101FF8004FF480510022244B00F05CF82348012163
:102008000022234B00F056F8204802210122214BE0
:1020180000F050F81D48042101221F4B00F04AF837
:102028001E484FF4005101221D4B00F043F81B4895
:102038004FF4804100221B4B00F03CF813484FF44A
:1020480080610022184B00F035F810484FF4006109
:102058000022164B00F02EF80C484FF48051002255
:10206800134B00F027F8034B1B68024A92881A8525
:1020780080BD00BFE00400202405002034050020B6
:102088002C050020C80400203C050020000400485E
:10209800E804002000050020D004002000080048C3
:1020A80008050020F8040020F0040020D8040020CF
:1020B8001C05002080B586B000AFF8607A603B60F0
:1020C8000B467B817B893B617B68002B07D1012311
:1020D8003B7503237B750023BB750023FB757B6869
:1020E800012B07D100233B7503237B750023BB75A8
:1020F8000023FB757B68022B07D101233B75032363
:102108007B750123BB750023FB7507F11003F86885
:10211800194601F009F83B68FA681A603B687A8941
:102128009A801837BD4680BD80B500AF104BD3F8F4
:10213800C82013469B0013449B000D4A13440D48C6
:1021480000211A4601F064FA094BD3F8C830591C2B
:10215800094B83FB01239A10CB17D21A13469B0015
:1021680013445B00CA1A024BC3F8C82080BD00BFE5
:1021780090050020006400406766666680B59CB0E4
:1021880000AF786039600023FB660023BB6600233C
:102198007B667B681B6823F001027B681A607B689A
:1021A8005B687B667B6E23F440537B663B689B6869
:1021B8007A6E13437B667B687A6E5A607B681B680D
:1021C8007B667B6E23F4B05323F00C037B663B687D
:1021D8005A683B68DB681A433B681B6913437A6E8D
:1021E80013437B667B687A6E1A607B689B687B66A4
:1021F8007B6E23F440737B663B685B697A6E13439E
:102208007B667B687A6E9A6007F10803184600F0CF
:10221800E3FB7A68324B9A4202D13B6CBB6616E00C
:102228007A68304B9A4202D17B6CBB660FE07A68C1
:102238002D4B9A4202D1BB6CBB6608E07A682B4BE7
:102248009A4202D1FB6CBB6601E03B6DBB667B68C2
:102258001B6803F40043002B11D0BB6E5A003B6887
:102268001B68B2FBF3F3FB66BB6E5B003A6812684F
:10227800B3FBF2F102FB01F29B1A7B660EE03B68AE
:102288001B68BA6EB2FBF3F3FB663B681A68BB6E59
:10229800B3FBF2F102FB01F29B1A7B663B681B68F9
:1022A8005A087B6E9A4202D8FB6E0133FB667B6844
:1022B8001B6803F40043002B0BD0FB6E03F00F03E5
:1022C8005B087B66FA6E4FF6F07313407A6E134321
:1022D800FB66FB6E9AB27B689A817037BD4680BDFB
:1022E800003801400044004000480040004C0040D5
:1022F80080B483B000AF78600B46FB70FB78002B8E
:1023080006D07B681B6843F001027B681A6005E011
:102318007B681B6823F001027B681A600C37BD4696
:102328005DF8047B704700BF80B483B000AF78606D
:102338000B467B807B88C3F308039AB27B681A85B7
:102348000C37BD465DF8047B704700BF80B485B08C
:1023580000AFF860B9601346FB71FB79002B06D01B
:10236800FB689A68BB681A43FB689A6006E0FB68DA
:102378009A68BB68DB431A40FB689A601437BD460D
:102388005DF8047B704700BF80B489B000AFF86087
:10239800B9601346FB710023BB6100237B610023F6
:1023A8003B610023FB61FB68FB61BB689BB21B0AB6
:1023B8009BB2BB61BB68DBB27B617B69012202FA1D
:1023C80003F33B61BB69022B03D1FB690433FB6157
:1023D80005E0BB69032B02D1FB690833FB61FB797C
:1023E800002B06D0FB69FA6911683A690A431A603A
:1023F80006E0FB69FA6911683A69D2430A401A6033
:102408002437BD465DF8047B704700BF80B485B0B3
:1024180000AF786039600023FB737B68DA693B683A
:102428001340002B02D00123FB7301E00023FB7350
:10243800FB7B18461437BD465DF8047B704700BF28
:1024480080B582B000AF78607A684E4B9A420AD164
:102458004FF40060012100F0B9FD4FF40060002145
:1024680000F0B4FD8AE07B68B3F1804F08D1012009
:10247800012100F0C9FD0120002100F0C5FD7DE02B
:102488007A68414B9A4208D10220012100F0BCFD34
:102498000220002100F0B8FD70E07A683B4B9A42B8
:1024A80008D10420012100F0AFFD0420002100F034
:1024B800ABFD63E07A68364B9A4208D110200121BF
:1024C80000F0A2FD1020002100F09EFD56E07A6881
:1024D800304B9A4208D12020012100F095FD2020A0
:1024E800002100F091FD49E07A682B4B9A420AD10D
:1024F8004FF40050012100F069FD4FF40050002115
:1025080000F064FD3AE07A68244B9A420AD14FF40D
:102518008030012100F05AFD4FF48030002100F096
:1025280055FD2BE07A681E4B9A420AD14FF40030D1
:10253800012100F04BFD4FF40030002100F046FD72
:102548001CE07A68174B9A420AD14FF48020012187
:1025580000F03CFD4FF48020002100F037FD0DE035
:102568007A68114B9A4209D14FF48010012100F08A
:102578002DFD4FF48010002100F028FD0837BD46DE
:1025880080BD00BF002C014000040040000800404E
:102598000010004000140040003401400040014099
:1025A80000440140004801400050014080B485B01B
:1025B80000AF786039600023FB817B681B88FB8152
:1025C8007A68304B9A4213D07A682F4B9A420FD0D0
:1025D8007B68B3F1804F0BD07A682C4B9A4207D0B6
:1025E8007A682B4B9A4203D07A682A4B9A4208D1D0
:1025F800FB8923F07003FB813B685A88FB891343EE
:10260800FB817A68244B9A420CD07A68234B9A4211
:1026180008D0FB8923F44073FB813B681A89FB8946
:102628001343FB817B68FA891A803B685A687B6888
:10263800DA623B681A887B681A857A68114B9A4275
:1026480013D07A68104B9A420FD07A68144B9A428A
:102658000BD07A68134B9A4207D07A68124B9A4289
:1026680003D07A680B4B9A4203D13B685A897B683E
:102678001A867B6801225A611437BD465DF8047BCF
:10268800704700BF002C01400034014000040040A6
:1026980000080040005001400010004000140040B5
:1026A80000400140004401400048014080B483B02C
:1026B80000AF786039607B683A685A620C37BD466B
:1026C8005DF8047B704700BF80B483B000AF7860CA
:1026D80039607B683A68DA620C37BD465DF8047B7E
:1026E800704700BF80B483B000AF78600B46FB70C2
:1026F800FB78002B08D07B681B889BB243F0010352
:102708009AB27B681A8007E07B681B889BB223F02B
:1027180001039AB27B681A800C37BD465DF8047BCA
:10272800704700BF80B483B000AF786013460A4694
:102738007A807B707B78002B06D07B68DA687B8890
:102748001A437B68DA6007E07B68DA687B88DB43DA
:102758009BB21A407B68DA600C37BD465DF8047B93
:10276800704700BF80B483B000AF78600B467B80B1
:102778007B88DB439BB21A467B681A610C37BD46DF
:102788005DF8047B704700BF80B487B000AFF86085
:1027980079813A81FB800023FB820023BB820023DE
:1027A8007B82FB689B68FB82FB689B69BB82FB683A
:1027B8001B6A7B82FB8A23F00703FB82FA8A7B89E8
:1027C8001343FB82BB8A23F4407323F00303BB82C9
:1027D800BB8A43F4807343F00103BB827B8A23F0F6
:1027E80022037B82FB881B019AB23B8913439AB26E
:1027F8007B8A13437B82FA8AFB689A60BA8AFB68F1
:102808009A617A8AFB681A621C37BD465DF8047BB8
:10281800704700BF80B485B000AF7860396000238E
:10282800FB813B685B88B3F5827F36D17B681B8868
:10283800FB81FB8903F44153FB813B681A883B68A1
:102848005B8813439AB23B68D9883B681B890B4362
:1028580099B23B6858893B689B89034398B23B68A7
:10286800DB8903439BB20B439BB213439AB2FB89A8
:102878001343FB817B68FA891A807B689B88FB81FC
:10288800FB8923F47063FB813B689A88FB891343B7
:10289800FB817B68FA899A8035E07B689B88FB819D
:1028A800FB8923F47063FB813B689A88FB89134397
:1028B800FB817B68FA899A807B681B88FB81FB898E
:1028C80003F44153FB813B681A883B685B881343D8
:1028D8009AB23B68D9883B681B890B4399B23B681D
:1028E80058893B689B89034398B23B68DB8903435B
:1028F8009BB20B439BB213439AB2FB891343FB81F0
:102908007B68FA891A807B689B8B9BB223F40063EF
:102918009AB27B689A833B681A8A7B681A82143752
:10292800BD465DF8047B704780B483B000AF786023
:102938000B46FB70FB78002B08D07B681B889BB28A
:1029480043F040039AB27B681A8007E07B681B88D3
:102958009BB223F040039AB27B681A800C37BD46BD
:102968005DF8047B704700BF80B483B000AF786027
:102978000B467B807B687A889A810C37BD465DF868
:10298800047B704780B483B000AF78607B689B8914
:102998009BB218460C37BD465DF8047B704700BFF4
:1029A80080B485B000AF78600B467B800023FB7352
:1029B8007B681B899AB27B8813409BB2002B02D09C
:1029C8000123FB7301E00023FB73FB7B18461437DC
:1029D800BD465DF8047B704780B48BB000AF78606B
:1029E80000233B620023FB610023BB6100237B6162
:1029F80000233B6100237B620023FB600023BB6054
:102A08008C4B5B6803F00C033B623B6A042B07D0DA
:102A1800082B09D0002B30D17B68874A1A6030E038
:102A28007B68854A1A602CE0824B5B6803F470135C
:102A3800FB61804B5B6803F48033BB61FB699B0CD3
:102A48000233FB61BB69002B05D1FB697B4A02FBA2
:102A580003F37B620DE0774BDB6A03F00F0301336E
:102A68007B61754A7B69B2FBF3F3FA6902FB03F3F6
:102A78007B627B687A6A1A6003E07B686E4A1A6038
:102A880000BF6C4B5B6803F0F0033B623B6A1B09B9
:102A98003B626B4A3B6A13441B78DBB2BB607B68C2
:102AA8001A68BB68DA407B685A60624B5B6803F45B
:102AB800E0633B623B6A1B0A3B62614A3B6A134420
:102AC8001B78DBB23B617B685A683B69DA407B68FC
:102AD8009A60584B5B6803F460533B623B6ADB0ABD
:102AE8003B62574A3B6A13441B78DBB2FB607B6846
:102AF8005A68FB68DA407B68DA604E4BDB6A03F49D
:102B0800F8733B623B6A1B093B623B6A03F00F02A6
:102B18004C4B33F812309BB23B613B6A03F0100315
:102B2800002B09D03B69002B06D07A6A3B69B2FBBF
:102B3800F3F27B681A6103E07B681A687B681A61A4
:102B48003C4BDB6A03F478533B623B6A5B0A3B62AB
:102B58003B6A03F00F023B4B33F812309BB23B61E8
:102B68003B6A03F01003002B09D03B69002B06D009
:102B78007A6A3B69B2FBF3F27B685A6103E07B68CF
:102B88001A687B685A612B4B1B6B03F01003002BF0
:102B980003D17B68284A9A6103E07B681A687B68DE
:102BA8009A61244B1B6B03F02003002B03D17B6835
:102BB800214ADA6103E07B681A687B68DA611D4B99
:102BC8001B6B03F04003002B03D17B681A4A1A627F
:102BD80003E07B681A687B681A62164B1B6B03F468
:102BE8008073002B0DD07B681A687B6A9A4208D1E3
:102BF800FA68BB689A4204D17B6A5A007B685A62B9
:102C080003E07B68DA687B685A620A4B1B6B03F443
:102C18008053002B18D07B681A687B6A9A4213D1BC
:102C2800FA68BB689A420FD17B6A5A007B689A623D
:102C38000EE000BF0010024000127A0000093D00BB
:102C480014000020240000207B68DA687B689A6200
:102C58008F4B1B6B03F40073002B0DD07B681A6835
:102C68007B6A9A4208D1FA68BB689A4204D17B6AA7
:102C78005A007B68DA6203E07B68DA687B68DA62AC
:102C8800834B1B6B03F48063002B0DD07B681A68A1
:102C98007B6A9A4208D1FA68BB689A4204D17B6A77
:102CA8005A007B68DA6403E07B68DA687B68DA6478
:102CB800774B1B6B03F40063002B0DD07B681A68FD
:102CC8007B6A9A4208D1FA68BB689A4204D17B6A47
:102CD8005A007B681A6503E07B68DA687B681A65C6
:102CE8006B4B1B6B03F40053002B0DD07B681A68E9
:102CF8007B6A9A4208D1FA68BB689A4204D17B6A17
:102D08005A007B685A6503E07B68DA687B681A6555
:102D18005F4B1B6B03F40043002B0DD07B681A68D4
:102D28007B6A9A4208D1FA68BB689A4204D17B6AE6
:102D38005A007B689A6503E07B68DA687B689A6565
:102D4800534B1B6B03F00303002B04D17B689A6879
:102D58007B689A631EE04E4B1B6B03F00303012B49
:102D680004D17B681A687B689A6313E0484B1B6B35
:102D780003F00303022B04D17B684FF400429A63EB
:102D880008E0434B1B6B03F00303032B02D17B6862
:102D9800404A9A633E4B1B6B03F44033002B04D12B
:102DA8007B689A687B68DA6321E0394B1B6B03F414
:102DB8004033B3F5803F04D17B681A687B68DA63D7
:102DC80015E0334B1B6B03F44033B3F5003F04D1DC
:102DD8007B684FF40042DA6309E02D4B1B6B03F468
:102DE8004033B3F5403F02D17B682A4ADA63284B67
:102DF8001B6B03F44023002B04D17B689A687B6823
:102E08001A6421E0224B1B6B03F44023B3F5802F97
:102E180004D17B681A687B681A6415E01C4B1B6B2D
:102E280003F44023B3F5002F04D17B684FF400422C
:102E38001A6409E0164B1B6B03F44023B3F5402FCB
:102E480002D17B68134A1A64114B1B6B03F44013BD
:102E5800002B04D17B689A687B685A6426E00C4B87
:102E68001B6B03F44013B3F5801F04D17B681A6809
:102E78007B685A641AE0064B1B6B03F44013B3F5E6
:102E8800001F09D17B684FF400425A640EE000BF6E
:102E98000010024000127A001D4B1B6B03F4401314
:102EA800B3F5401F02D17B681A4A5A64184B1B6B52
:102EB80003F44003002B04D17B689A687B689A640A
:102EC80021E0134B1B6B03F44003B3F5800F04D1CF
:102ED8007B681A687B689A6415E00D4B1B6B03F4DA
:102EE8004003B3F5000F04D17B684FF400429A64A5
:102EF80009E0074B1B6B03F44003B3F5400F02D105
:102F08007B68044A9A642C37BD465DF8047B704799
:102F18000010024000127A0080B483B000AF7860DD
:102F28000B46FB70FB78002B06D0094B084A516909
:102F38007A680A435A6106E0054B054A51697A687E
:102F4800D2430A405A610C37BD465DF8047B70478E
:102F58000010024080B483B000AF78600B46FB706D
:102F6800FB78002B06D0094B084A91697A680A4316
:102F78009A6106E0054B054A91697A68D2430A408E
:102F88009A610C37BD465DF8047B7047001002401B
:102F980080B483B000AF78600B46FB70FB78002BE1
:102FA80006D0094B084AD1697A680A43DA6106E013
:102FB800054B054AD1697A68D2430A40DA610C3771
:102FC800BD465DF8047B70470010024080B483B0B2
:102FD80000AF78600B46FB70FB78002B06D0094BDE
:102FE800084AD1687A680A43DA6006E0054B054A60
:102FF800D1687A68D2430A40DA600C37BD465DF87A
:10300800047B70470010024080B483B000AF786042
:103018000B46FB70FB78002B06D0094B084A116958
:103028007A680A431A6106E0054B054A11697A680D
:10303800D2430A401A610C37BD465DF8047B7047DD
:103048000010024080B483B000AF7860054A7B6806
:1030580043F0BF6343F40033D3600C37BD465DF8DB
:10306800047B704700ED00E080B487B000AF786063
:1030780000237B6100233B610F23FB607B68DB78C7
:10308800002B38D0264BDB68DB4303F4E0631B0AD4
:103098007B617B69C3F104033B617B69FA6822FAAF
:1030A80003F3FB607B685B781A463B6902FA03F31B
:1030B8007B617B689B781A46FB6813407A691343E7
:1030C8007B617B691B017B6116497B681B787A6988
:1030D800D2B20B4483F80023124B7A681278520953
:1030E800D2B27968097801F01F01012000FA01F1D4
:1030F80043F822100EE00B4B7A6812785209D2B2CC
:103108007968097801F01F01012000FA01F12032E5
:1031180043F822101C37BD465DF8047B704700BF9A
:1031280000ED00E000E100E080B487B000AF786017
:10313800396000237B6100233B610023FB6000238F
:10314800BB6000237B617EE07B69012202FA03F306
:103158003B613B681A683B691340FB60FA683B694E
:103168009A426DD13B681B79012B03D03B681B79D0
:10317800022B34D17B689A687B695B00032101FAD2
:1031880003F3DB431A407B689A607B689A683B6864
:103198005B7919467B695B0001FA03F31A437B6884
:1031A8009A607B689B889AB27B699BB2012101FA7D
:1031B80003F39BB2DB439BB213409AB27B689A80BD
:1031C8007B689B889AB23B689B7919467B699BB25E
:1031D80001FA03F39BB213439AB27B689A807B6827
:1031E8001A687B695B00032101FA03F3DB431A4089
:1031F8007B681A607B681A683B681B7919467B698B
:103208005B0001FA03F31A437B681A607B68DB688A
:10321800BB607B699BB25B00032202FA03F3DB43CA
:10322800BA681340BB603B68DB791A467B695B0070
:1032380002FA03F3BA681343BB607B68BA68DA60C2
:103248007B6901337B617B690F2B7FF67DAF1C3770
:10325800BD465DF8047B704780B485B000AF7860E8
:1032680013460A467A807B700023FB600023BB600C
:103278007A787B8803F007039B0002FA03F3FB606C
:103288007B88DB089BB21A467B88DB089BB2194611
:103298007B68083153F821107B8803F007039B00F3
:1032A8000F2000FA03F3DB4319407B68083243F828
:1032B80022107B88DB089BB21A467B68083253F8D9
:1032C8002220FB681343BB607B88DB089BB21A464D
:1032D8007B680832B96843F822101437BD465DF898
:1032E800047B704780B483B000AF78607B681A684D
:1032F8004FF6FE7313407A6813607B6800221A60E9
:103308007B6800225A607B6800229A607B680022F2
:10331800DA607A68434B9A4206D1434B424A526874
:1033280042F00F025A6077E07A68404B9A4206D121
:103338003D4B3D4A526842F0F0025A606CE07A68B0
:103348003B4B9A4206D1384B374A526842F4706276
:103358005A6061E07A68374B9A4206D1324B324A5A
:10336800526842F470425A6056E07A68324B9A4288
:1033780006D12D4B2C4A526842F470225A604BE019
:103388007A682E4B9A4206D1274B274A526842F454
:1033980070025A6040E07A68294B9A4206D1224B63
:1033A800214A526842F070625A6035E07A68254BCB
:1033B8009A4206D1244B244A526842F00F025A60BE
:1033C8002AE07A68214B9A4206D11F4B1E4A52685E
:1033D80042F0F0025A601FE07A681D4B9A4206D10B
:1033E800194B194A526842F470625A6014E07A68BC
:1033F800184B9A4206D1144B134A526842F4704251
:103408005A6009E07A68144B9A4205D10E4B0E4A6D
:10341800526842F470225A600C37BD465DF8047B4E
:10342800704700BF08000240000002401C00024034
:103438003000024044000240580002406C00024044
:103448008000024008040240000402401C040240BC
:1034580030040240440402405804024080B485B05D
:1034680000AF786039600023FB607B681B68FB60F5
:10347800FB6823F4FF4323F07003FB603B689A6802
:103488003B681B6A1A433B681B691A433B685B69C4
:103498001A433B689B691A433B68DB691A433B68DC
:1034A8005B6A1A433B689B6A1343FA681343FB60E1
:1034B8007B68FA681A603B689B891A467B685A6081
:1034C8003B681A687B689A603B685A687B68DA6070
:1034D8001437BD465DF8047B704700BF80B483B0E5
:1034E80000AF78600B46FB70FB78002B06D07B683A
:1034F8001B6843F001027B681A6006E07B681A6863
:103508004FF6FE7313407A6813600C37BD465DF8BA
:10351800047B704780B483B000AF78600B467B8033
:103528007A887B685A600C37BD465DF8047B704723
:1035380080B483B000AF78607B685B689BB2184644
:103548000C37BD465DF8047B704700BF80B485B07A
:1035580000AFF860B9601346FB71FB79002B06D009
:10356800FB681A68BB681A43FB681A6006E0FB68C8
:103578001A68BB68DB431A40FB681A601437BD46FB
:103588005DF8047B704700BF80B485B000AF7860F9
:103598000023FB730023BB607B6803F08053002B80
:1035A80003D00C4B1B68BB6002E00B4B1B68BB6075
:1035B800BA687B681340002B02D00123FB7301E03B
:1035C8000023FB73FB7B18461437BD465DF8047B6C
:1035D800704700BF000402400000024080B483B07E
:1035E80000AF78607B6803F08053002B03D0064B54
:1035F8007A685A6002E0054B7A685A600C37BD4613
:103608005DF8047B704700BF0004024000000240E0
:1036180080B485B000AFF8600B467A60FB72FB7A25
:10362800FA681B331B0113441B68DBB203F0040365
:10363800DAB27B681A727B681B7A002B09D1FB7A95
:10364800FA681B331B0113441B685A0D7B681A6008
:1036580008E0FB7AFA681B331B0113441B68DA087D
:103668007B685A60FB7AFA681B331B0113441B689A
:10367800DBB203F00203DAB27B685A72FB7AFA68AB
:103688001B331B0113445B68DBB203F00F03DAB290
:103698007B689A72FB7AFA681B331B0113445B68D8
:1036A8001B0ADAB27B68DA74FB7AFA681B011344E6
:1036B80003F5DC731B68DAB27B68DA72FB7AFA68A6
:1036C8001B01134403F5DC731B681B0ADAB27B6821
:1036D8001A73FB7AFA681B01134403F5DC731B6841
:1036E8001B0CDAB27B685A73FB7AFA681B01134425
:1036F80003F5DC731B681B0EDAB27B689A73FB7ADE
:10370800FA681B01134403F5DC735B68DAB27B6863
:10371800DA73FB7AFA681B01134403F5DC735B6800
:103728001B0ADAB27B681A74FB7AFA681B01134425
:1037380003F5DC735B681B0CDAB27B685A74FB7A9E
:10374800FA681B01134403F5DC735B681B0EDAB2DD
:103758007B689A74FB7A002B06D1FB68DB6843F020
:103768002002FB68DA6005E0FB681B6943F0200271
:10377800FB681A611437BD465DF8047B704700BFCB
:1037880070B50E4B0E4DED1AAD1000241E46AC421E
:1037980004D056F8242090470134F8E700F016F8D2
:1037A800084D094BED1AAD1000241E46AC4204D05A
:1037B80056F8242090470134F8E770BDEC3700082C
:1037C800EC370008F0370008EC370008F8B500BF00
:1037D800F8BC08BC9E467047F8B500BFF8BC08BCEA
:0437E8009E46704742
:0437EC00AD01000823
:0437F0008901000843
:1037F40000A24A04000000000000000001020304CB
:103804000607080900000000010203040102030482
:1038140006070809010002000400060008000A0067
:103824000C00100020004000800000010000000097
:043834000000000090
:04000005080006E108
:00000001FF
