:020000040800F2
:1000000000400020E127000831280008772200087E
:100010003128000831280008832200080000000071
:10002000000000000000000000000000312800086F
:10003000312800080000000031280008312800089D
:100040007D220008312800083128000831280008E6
:10005000312800083128000831280008312800081C
:10006000312800083128000831280008312800080C
:1000700031280008312800083128000831280008FC
:1000800031280008BD250008312800083128000863
:1000900029180008312800083128000831280008F4
:1000A00031280008312800083128000831280008CC
:1000B000312800080000000000000000312800087E
:1000C000312800083128000831280008000000000D
:1000D000312800083128000841250008312800088F
:1000E00031280008312800083128000800000000ED
:1000F0000000000000000000000000000000000000
:10010000000000000000000000000000312800088E
:10011000000000000000000079200008000000003E
:1001200000000000000000000000000000000000CF
:1001300000000000000000000000000000000000BF
:1001400031280008312800080000000000000000ED
:10015000000000000000000000000000000000009F
:10016000312800083128000831280008312800080B
:10017000312800080000000000000000000000001E
:08018000000000003128000816
:1001880010B5054C237833B9044B13B10448AFF3C9
:1001980000800123237010BD4400002000000000EF
:1001A800542B000808B5034B1BB103490348AFF3B0
:1001B800008008BD0000000048000020542B000803
:1001C80080B485B000AFF8600B467A60FB72FB7AAA
:1001D800FA681B331B0113441B68DBB203F00403EA
:1001E800DAB27B681A727B681B7A002B0BD1FB7A18
:1001F800FA681B331B0113441B685B0DC3F30A0227
:100208007B681A600AE0FB7AFA681B331B01134407
:100218001B68DB0823F060427B685A60FB7AFA6847
:100228001B331B0113441B68DBB203F00203DAB271
:100238007B685A72FB7AFA681B331B011344043338
:100248001B68DBB203F00F03DAB27B689A72FB7AA1
:10025800FA681B331B01134404331B681B0ADAB208
:100268007B68DA74FB7AFA681B01134403F5DC73C4
:100278001B68DAB27B68DA72FB7AFA681B011344EE
:1002880003F5DC731B681B0ADAB27B681A73FB7A06
:10029800FA681B01134403F5DC731B681B0CDAB204
:1002A8007B685A73FB7AFA681B01134403F5DC7305
:1002B8001B681B0EDAB27B689A73FB7AFA681B011B
:1002C800134403F5DE731B68DAB27B68DA73FB7AD2
:1002D800FA681B01134403F5DE731B681B0ADAB2C4
:1002E8007B681A74FB7AFA681B01134403F5DE7302
:1002F8001B681B0CDAB27B685A74FB7AFA681B011C
:10030800134403F5DE731B681B0EDAB27B689A741C
:10031800FB7A002B06D1FB68DB6843F02002FB6800
:10032800DA6005E0FB681B6943F02002FB681A618C
:1003380000BF1437BD465DF8047B704780B483B0B6
:1003480000AF78607B681A684FF6FE7313407A68CE
:1003580013607B6800221A607B6800225A607B6801
:1003680000229A607B680022DA607B68434A9342E5
:1003780006D1434A424B5B6843F00F03536077E072
:100388007B68404A934206D13D4A3D4B5B6843F047
:10039800F00353606CE07B683B4A934206D1384ACD
:1003A800374B5B6843F47063536061E07B68374A9E
:1003B800934206D1324A324B5B6843F47043536030
:1003C80056E07B68324A934206D12D4A2C4B5B6833
:1003D80043F4702353604BE07B682E4A934206D166
:1003E800274A274B5B6843F47003536040E07B68FF
:1003F800294A934206D1224A214B5B6843F0706335
:10040800536035E07B68254A934206D1244A244B41
:100418005B6843F00F0353602AE07B68214A9342EC
:1004280006D11F4A1E4B5B6843F0F00353601FE080
:100438007B681D4A934206D1194A194B5B6843F4FD
:100448007063536014E07B68184A934206D1144ADB
:10045800134B5B6843F47043536009E07B68144AAC
:10046800934205D10E4A0E4B5B6843F470235360E8
:1004780000BF0C37BD465DF8047B7047080002409A
:10048800000002401C0002403000024044000240CC
:10049800580002406C0002408000024008040240FC
:1004A800000402401C04024030040240440402409C
:1004B8005804024080B485B000AF786039600023EA
:1004C800FB607B681B68FB60FB6823F4FF4323F039
:1004D8007003FB603B689A683B681B6A1A433B6879
:1004E8001B691A433B685B691A433B689B691A435B
:1004F8003B68DB691A433B685B6A1A433B689B6A43
:100508001343FA681343FB607B68FA681A603B6818
:100518009B891A467B685A603B681A687B689A60B0
:100528003B685A687B68DA6000BF1437BD465DF8DF
:10053800047B704780B483B000AF78600B46FB70D3
:10054800FB78002B06D07B681B6843F001027B68B0
:100558001A6006E07B681A684FF6FE7313407A68E3
:10056800136000BF0C37BD465DF8047B704780B44C
:1005780083B000AF78600B467B807A887B685A60CE
:1005880000BF0C37BD465DF8047B704780B483B06C
:1005980000AF78607B685B689BB218460C37BD4635
:1005A8005DF8047B704780B485B000AFF860B9602F
:1005B8001346FB71FB79002B06D0FB681A68BB68F1
:1005C8001A43FB681A6006E0FB681A68BB68DB43DD
:1005D8001A40FB681A6000BF1437BD465DF8047BFB
:1005E8007047000080B485B000AF78600023FB73CB
:1005F8000023BB607B6803F08053002B03D00C4BB7
:100608001B68BB6002E00B4B1B68BB60BA687B6869
:100618001340002B02D00123FB7301E00023FB737E
:10062800FB7B18461437BD465DF8047B704700BF56
:10063800000402400000024080B483B000AF78603C
:100648007B6803F08053002B03D0064A7B68536015
:1006580002E0054A7B68536000BF0C37BD465DF871
:10066800047B7047000402400000024080B487B059
:1006780000AF7860396000237B6100233B61002371
:10068800FB600023BB6000237B617EE001227B6965
:1006980002FA03F33B613B681A683B691340FB604D
:1006A800FA683B699A426DD13B681B79012B03D0EC
:1006B8003B681B79022B34D17B689A687B695B00A5
:1006C800032101FA03F3DB431A407B689A607B68D5
:1006D8009A683B685B7919467B695B0001FA03F30A
:1006E8001A437B689A607B689B889AB27B699BB245
:1006F800194601238B409BB2DB439BB213409AB24D
:100708007B689A807B689B889AB23B689B7919467C
:100718007B699BB201FA03F39BB213439AB27B68DD
:100728009A807B681A687B695B00032101FA03F3EE
:10073800DB431A407B681A607B681A683B681B7940
:1007480019467B695B0001FA03F31A437B681A6058
:100758007B68DB68BB607B699BB25B00032202FAA3
:1007680003F3DB43BA681340BB603B68DB791A4686
:100778007B695B0002FA03F3BA681343BB607B68CA
:10078800BA68DA607B6901337B617B690F2B7FF67E
:100798007DAF00BF1C37BD465DF8047B704780B451
:1007A80085B000AF78600B467B8013467B700023D2
:1007B800FB600023BB607A787B8803F007039B000B
:1007C80002FA03F3FB607B88DB089BB218467B8840
:1007D800DB089BB21A467B68083253F822207B88D4
:1007E80003F007039B000F2101FA03F3DB4302EA3E
:1007F80003017B6800F1080243F822107B88DB08BC
:100808009BB21A467B68083253F82220FB681343D0
:10081800BB607B88DB089BB21A467B680832B968E4
:1008280043F8221000BF1437BD465DF8047B7047BB
:1008380080B483B000AF7860064A7B6843F0BF633A
:1008480043F40033D36000BF0C37BD465DF8047B2A
:10085800704700BF00ED00E080B487B000AF78605B
:1008680000237B6100233B610F23FB607B68DB78FF
:10087800002B3AD0284BDB68DB431B0A03F0070345
:100888007B617B69C3F104033B61FA687B6922FAE7
:1008980003F3FB607B685B781A463B6902FA03F353
:1008A8007B617B689B781A46FB6813407A6913431F
:1008B8007B617B691B017B61184A7B681B787969BE
:1008C800C9B213440A4683F80023144A7B681B788C
:1008D8005B09DBB218467B681B7803F01F03012114
:1008E80001FA03F342F820300FE00C497B681B78CB
:1008F8005B09DBB218467B681B7803F01F030122F3
:100908009A4000F1200341F8232000BF1C37BD4660
:100918005DF8047B704700BF00ED00E000E100E0F7
:1009280080B48BB000AF786000233B620023FB618A
:100938000023BB6100237B6100233B6100237B62B2
:100948000023FB600023BB608D4B5B6803F00C0346
:100958003B623B6A042B07D0082B09D0002B30D10F
:100968007B68884A1A6030E07B68864A1A602CE007
:10097800834B5B6803F47013FB61814B5B6803F482
:100988008033BB61FB699B0C0233FB61BB69002BA5
:1009980005D1FB697C4A02FB03F37B620DE0784BCF
:1009A800DB6A03F00F0301337B61764A7B69B2FB94
:1009B800F3F3FA6902FB03F37B627B687A6A1A60D5
:1009C80003E07B686F4A1A6000BF6D4B5B6803F0F9
:1009D800F0033B623B6A1B093B626C4A3B6A134467
:1009E8001B78DBB2BB607B681A68BB68DA407B683F
:1009F8005A60634B5B6803F4E0633B623B6A1B0A23
:100A08003B62624A3B6A13441B78DBB23B617B68FA
:100A18005A683B69DA407B689A60594B5B6803F413
:100A280060533B623B6ADB0A3B62584A3B6A1344A9
:100A38001B78DBB2FB607B685A68FB68DA407B682E
:100A4800DA604F4BDB6A03F4F8733B623B6A1B09BD
:100A58003B623B6A03F00F034D4A32F813309BB2F6
:100A68003B613B6A03F01003002B09D03B69002B64
:100A780006D07A6A3B69B2FBF3F27B681A6103E03D
:100A88007B681A687B681A613D4BDB6A03F478530C
:100A98003B623B6A5B0A3B623B6A03F00F033C4ADA
:100AA80032F813309BB23B613B6A03F01003002B12
:100AB80009D03B69002B06D07A6A3B69B2FBF3F296
:100AC8007B685A6103E07B681A687B685A612C4B23
:100AD8001B6B03F01003102B03D07B68294A9A6123
:100AE80003E07B681A687B689A61254B1B6B03F0EF
:100AF8002003202B03D07B68224ADA6103E07B685D
:100B08001A687B68DA611E4B1B6B03F04003402BAD
:100B180003D07B681B4A1A6203E07B681A687B680B
:100B28001A62174B1B6B03F48073B3F5807F0DD1EA
:100B38007B681A687B6A9A4208D1FA68BB689A424D
:100B480004D17B6A5A007B685A6203E07B68DA68E2
:100B58007B685A620A4B1B6B03F48053B3F5805FC2
:100B680018D17B681A687B6A9A4213D1FA68BB6805
:100B78009A420FD17B6A5A007B689A620EE000BFE6
:100B88000010024000127A0000093D000000002019
:100B9800100000207B68DA687B689A62914B1B6BB7
:100BA80003F40073B3F5007F0DD17B681A687B6A84
:100BB8009A4208D1FA68BB689A4204D17B6A5A0003
:100BC8007B68DA6203E07B68DA687B68DA62854B07
:100BD8001B6B03F48063B3F5806F0DD17B681A68D3
:100BE8007B6A9A4208D1FA68BB689A4204D17B6A48
:100BF8005A007B68DA6403E07B68DA687B68DA6449
:100C0800784B1B6B03F40063B3F5006F0DD17B6861
:100C18001A687B6A9A4208D1FA68BB689A4204D17A
:100C28007B6A5A007B681A6503E07B68DA687B6830
:100C38001A656C4B1B6B03F40053B3F5005F0DD1C1
:100C48007B681A687B6A9A4208D1FA68BB689A423C
:100C580004D17B6A5A007B685A6503E07B68DA68CE
:100C68007B681A655F4B1B6B03F40043B3F5004FB9
:100C78000DD17B681A687B6A9A4208D1FA68BB680A
:100C88009A4204D17B6A5A007B689A6503E07B68C4
:100C9800DA687B689A65534B1B6B03F00303002BE0
:100CA80004D17B689A687B689A631EE04D4B1B6B86
:100CB80003F00303012B04D17B681A687B689A63ED
:100CC80013E0484B1B6B03F00303022B04D17B6832
:100CD8004FF400429A6308E0424B1B6B03F0030396
:100CE800032B02D17B68404A9A633E4B1B6B03F48B
:100CF8004033002B04D17B689A687B68DA6321E073
:100D0800384B1B6B03F44033B3F5803F04D17B6849
:100D18001A687B68DA6315E0324B1B6B03F44033C7
:100D2800B3F5003F04D17B684FF40042DA6309E071
:100D38002C4B1B6B03F44033B3F5403F02D17B6867
:100D4800294ADA63274B1B6B03F44023002B04D199
:100D58007B689A687B681A6421E0224B1B6B03F45A
:100D68004023B3F5802F04D17B681A687B681A6426
:100D780015E01C4B1B6B03F44023B3F5002F04D183
:100D88007B684FF400421A6409E0164B1B6B03F4AE
:100D98004023B3F5402F02D17B68134A1A64114BE4
:100DA8001B6B03F44013002B04D17B689A687B68A3
:100DB8005A6425E00B4B1B6B03F44013B3F5801FFB
:100DC80004D17B681A687B685A6419E0054B1B6B71
:100DD80003F44013B3F5001F08D17B684FF40042B9
:100DE8005A640DE00010024000127A001E4B1B6B83
:100DF80003F44013B3F5401F02D17B681B4A5A64C1
:100E0800194B1B6B03F44003002B04D17B689A68D1
:100E18007B689A6421E0144B1B6B03F44003B3F521
:100E2800800F04D17B681A687B689A6415E00E4BC2
:100E38001B6B03F44003B3F5000F04D17B684FF438
:100E480000429A6409E0084B1B6B03F44003B3F5B6
:100E5800400F02D17B68054A9A6400BF2C37BD4613
:100E68005DF8047B704700BF0010024000127A0052
:100E780080B483B000AF78600B46FB70FB78002B22
:100E880006D00A49094B5A697B6813434B6106E04F
:100E98000649064B5A697B68DB4313404B6100BF28
:100EA8000C37BD465DF8047B704700BF0010024058
:100EB80080B483B000AF78600B46FB70FB78002BE2
:100EC80006D00A49094B9A697B6813438B6106E08F
:100ED8000649064B9A697B68DB4313408B6100BF68
:100EE8000C37BD465DF8047B704700BF0010024018
:100EF80080B483B000AF78600B46FB70FB78002BA2
:100F080006D00A49094BDA697B681343CB6106E0CE
:100F18000649064BDA697B68DB431340CB6100BFA7
:100F28000C37BD465DF8047B704700BF00100240D7
:100F380080B483B000AF78600B46FB70FB78002B61
:100F480006D00A49094BDA687B681343CB6006E090
:100F58000649064BDA687B68DB431340CB6000BF69
:100F68000C37BD465DF8047B704700BF0010024097
:100F780080B483B000AF78600B46FB70FB78002B21
:100F880006D00A49094B1A697B6813430B6106E0CE
:100F98000649064B1A697B68DB4313400B6100BFA7
:100FA8000C37BD465DF8047B704700BF0010024057
:100FB80080B485B000AF786039600023FB813B685E
:100FC8005B88B3F5827F36D17B681B88FB81FB8900
:100FD80003F44153FB813B681A883B685B881343E1
:100FE8009AB23B68D9883B681B890B4399B23B6826
:100FF80058893B689B89034398B23B68DB89034364
:101008009BB20B439BB213439AB2FB891343FB81F8
:101018007B68FA891A807B689B88FB81FB8923F4AB
:101028007063FB813B689A88FB891343FB817B686B
:10103800FA899A8035E07B689B88FB81FB8923F4D9
:101048007063FB813B689A88FB891343FB817B684B
:10105800FA899A807B681B88FB81FB8903F44153DA
:10106800FB813B681A883B685B8813439AB23B68EC
:10107800D9883B681B890B4399B23B6858893B6800
:101088009B89034398B23B68DB8903439BB20B43BC
:101098009BB213439AB2FB891343FB817B68FA899D
:1010A8001A807B689B8B9BB223F400639AB27B689F
:1010B8009A833B681A8A7B681A8200BF1437BD4638
:1010C8005DF8047B704780B483B000AF78600B464E
:1010D800FB70FB78002B08D07B681B889BB243F021
:1010E80040039AB27B681A8007E07B681B889BB232
:1010F80023F040039AB27B681A8000BF0C37BD46C4
:101108005DF8047B704780B483B000AF78600B460D
:101118007B807B687A889A8100BF0C37BD465DF872
:10112800047B704780B483B000AF78607B689B898C
:101138009BB218460C37BD465DF8047B704780B4F7
:1011480085B000AF78600B467B800023FB737B681B
:101158001B899AB27B8813409BB2002B02D00123D3
:10116800FB7301E00023FB73FB7B18461437BD4675
:101178005DF8047B7047000080B582B000AF7860EE
:101188007B684E4A93420AD101214FF40060FFF771
:10119800CFFE00214FF40060FFF7CAFE8AE07B68AB
:1011A800B3F1804F08D101210120FFF7E1FE0021B2
:1011B8000120FFF7DDFE7DE07B68414A934208D1BC
:1011C80001210220FFF7D4FE00210220FFF7D0FE04
:1011D80070E07B683B4A934208D101210420FFF765
:1011E800C7FE00210420FFF7C3FE63E07B68364A90
:1011F800934208D101211020FFF7BAFE00211020E8
:10120800FFF7B6FE56E07B68304A934208D10121C9
:101218002020FFF7ADFE00212020FFF7A9FE49E0BE
:101228007B682B4A93420AD101214FF40050FFF703
:101238007FFE00214FF40050FFF77AFE3AE07B680A
:10124800244A93420AD101214FF48030FFF770FEFF
:1012580000214FF48030FFF76BFE2BE07B681E4ABD
:1012680093420AD101214FF40030FFF761FE0021BB
:101278004FF40030FFF75CFE1CE07B68174A93428E
:101288000AD101214FF48020FFF752FE00214FF4CC
:101298008020FFF74DFE0DE07B68114A934209D18B
:1012A80001214FF48010FFF743FE00214FF4801016
:1012B800FFF73EFE00BF0837BD4680BD002C014049
:1012C80000040040000800400010004000140040E6
:1012D8000034014000400140004401400048014002
:1012E8000050014080B485B000AF786039600023B9
:1012F800FB817B681B88FB817B68304A934213D053
:101308007B682F4A93420FD07B68B3F1804F0BD094
:101318007B682C4A934207D07B682B4A934203D0C0
:101328007B682A4A934208D1FB8923F07003FB812A
:101338003B685A88FB891343FB817B68244A9342A4
:101348000CD07B68234A934208D0FB8923F440736E
:10135800FB813B681A89FB891343FB817B68FA8907
:101368001A803B685A687B68DA623B681A887B682F
:101378001A857B68114A934213D07B68104A9342BE
:101388000FD07B68144A93420BD07B68134A934270
:1013980007D07B68124A934203D07B680B4A93427A
:1013A80003D13B685A897B681A867B6801225A6197
:1013B80000BF1437BD465DF8047B7047002C014020
:1013C8000034014000040040000800400050014083
:1013D800001000400014004000400140004401405B
:1013E8000048014080B483B000AF786039607B6802
:1013F8003A685A6200BF0C37BD465DF8047B7047F7
:1014080080B483B000AF786039607B683A68DA628C
:1014180000BF0C37BD465DF8047B704780B483B0CD
:1014280000AF78600B46FB70FB78002B08D07B6818
:101438001B889BB243F001039AB27B681A8007E0CD
:101448007B681B889BB223F001039AB27B681A80E1
:1014580000BF0C37BD465DF8047B704780B483B08D
:1014680000AF78600B467B8013467B707B78002B3F
:1014780006D07B68DA687B881A437B68DA6007E005
:101488007B68DB687A88D24392B21A407B68DA605C
:1014980000BF0C37BD465DF8047B704780B483B04D
:1014A80000AF78600B467B807B88DB439BB21A4693
:1014B8007B681A6100BF0C37BD465DF8047B704736
:1014C80080B487B000AFF860084611461A46034654
:1014D8007B810B463B811346FB800023FB82002364
:1014E800BB8200237B82FB689B68FB82FB689B694D
:1014F800BB82FB681B6A7B82FB8A23F00703FB82A3
:10150800FA8A7B891343FB82BB8A23F4407323F056
:101518000303BB82BB8A43F4807343F00103BB829D
:101528007B8A23F022037B82FB881B019AB23B89CA
:1015380013439AB27B8A13437B82FA8AFB689A60C8
:10154800BA8AFB689A617A8AFB681A6200BF1C37FC
:10155800BD465DF8047B704780B59CB000AF7860ED
:1015680039600023FB660023BB6600237B667B682B
:101578001B6823F001027B681A607B685B687B66E6
:101588007B6E23F440537B663B689B687A6E1343FB
:101598007B667B687A6E5A607B681B687B667B6EAD
:1015A80023F4B05323F00C037B663B685A683B680E
:1015B800DB681A433B681B6913437A6E13437B66E7
:1015C8007B687A6E1A607B689B687B667B6E23F407
:1015D80040737B663B685B697A6E13437B667B6806
:1015E8007A6E9A6007F108031846FFF799F97B6845
:1015F800334A934202D13B6CBB6616E07B68314AA2
:10160800934202D17B6CBB660FE07B682E4A934203
:1016180002D1BB6CBB6608E07B682C4A934202D1BE
:10162800FB6CBB6601E03B6DBB667B681B6803F423
:101638000043002B11D0BB6E5A003B681B68B2FBFD
:10164800F3F3FB66BB6E5B003A681268B3FBF2F11A
:1016580002FB01F29B1A7B660EE03B681B68BA6EC0
:10166800B2FBF3F3FB663B681A68BB6EB3FBF2F19F
:1016780002FB01F29B1A7B663B681B685A087B6E6B
:101688009A4202D8FB6E0133FB667B681B6803F441
:101698000043002B0BD0FB6E5B0803F007037B664F
:1016A800FA6E4FF6F07313407A6E1343FB66FB6EC7
:1016B8009AB27B689A8100BF7037BD4680BD00BF73
:1016C800003801400044004000480040004C004001
:1016D80080B483B000AF78600B46FB70FB78002BBA
:1016E80006D07B681B6843F001027B681A6005E03E
:1016F8007B681B6823F001027B681A6000BF0C3707
:10170800BD465DF8047B704780B483B000AF786055
:101718000B467B807B88C3F308039AB27B681A85E3
:1017280000BF0C37BD465DF8047B704780B485B0B8
:1017380000AFF860B9601346FB71FB79002B06D047
:10174800FB689A68BB681A43FB689A6006E0FB6806
:101758009A68BB68DB431A40FB689A6000BF14377D
:10176800BD465DF8047B704780B489B000AFF8606F
:10177800B9601346FB710023BB6100237B61002322
:101788003B610023FB61FB68FB61BB689BB21B0AE2
:101798009BB2BB61BB68DBB27B6101227B6902FA49
:1017A80003F33B61BB69022B03D1FB690433FB6183
:1017B80005E0BB69032B02D1FB690833FB61FB79A8
:1017C800002B06D0FB69FA6911683A690A431A6066
:1017D80006E0FB69FA6911683A69D2430A401A605F
:1017E80000BF2437BD465DF8047B704780B485B0E0
:1017F80000AF786039600023FB737B68DA693B6867
:101808001340002B02D00123FB7301E00023FB737C
:10181800FB7B18461437BD465DF8047B7047000013
:1018280080B500AF104BD3F8C82013469B00134473
:101838009B000D4A13441A4600210C48FEF7C0FCD1
:10184800094BD3F8C830591C094B83FB01239A1064
:10185800CB17D21A13469B0013445B00CA1A024BDB
:10186800C3F8C82000BF80BD780000200064004095
:101878006766666680B500AF374B002210214FF0CF
:10188800904000F089F8344B1B68334A92881A85D7
:10189800324B00224FF480714FF0904000F07CF8FA
:1018A8002F4B00224FF400714FF0904000F074F875
:1018B8002C4B00224FF480614FF0904000F06CF800
:1018C800294B00224FF400614FF0904000F064F87B
:1018D800264B00224FF480514FF0904000F05CF806
:1018E800234B00220121234800F056F8224B012205
:1018F8000221204800F050F8204B012204211D4805
:1019080000F04AF81E4B01224FF400511D4800F028
:1019180043F81D4B00224FF480411A4800F03CF870
:101928001A4B00224FF48061124800F035F8184B2A
:1019380000224FF400610F4800F02EF8154B0022EA
:101948004FF480510B4800F027F8034B1B68024AFC
:1019580092881A8500BF80BD7C010020C00100204C
:10196800D0010020C801002064010020D801002017
:1019780084010020000400489C0100206C01002024
:10198800A401002000080048940100208C010020D8
:1019980074010020B801002080B586B000AFF8605F
:1019A8007A603B600B467B817B893B617B68002BBF
:1019B80007D101233B7503237B750023BB750023E7
:1019C800FB757B68012B07D100233B7503237B75CF
:1019D8000023BB750023FB757B68022B07D101230D
:1019E8003B7503237B750123BB750023FB7507F14A
:1019F80010031946F868FEF739FE3B68FA681A6062
:101A08003B687A899A8000BF1837BD4680BD80B58B
:101A180000AF00F035FC00BF80BD000080B584B089
:101A280000AF78600B4BFB607B681B6803F50373A2
:101A3800FA6802F5037212781A707B681B6893F8CB
:101A48000C321946F86800F055FD00BF1037BD4646
:101A580080BD00BFFC01002080B582B000AF786077
:101A680001220021786801F069F800BF0837BD46F7
:101A780080BD000080B500AF4FF44070FEF7D8FE7F
:101A880001214FF40030FFF7F3F901214FF48020D2
:101A9800FFF7EEF901214FF40020FFF7E9F900F014
:101AA8000FFFFFF7E7FE00F0B5FD00F0E7FF00F0DD
:101AB80017F800F08BFB00F0EBFA0348FFF7CCFFB8
:101AC800FFF7A5FF00BF80BD5001002080B500AF23
:101AD800024B1B681846FFF7A1FFF9E750010020E9
:101AE80080B582B000AF924B4FF400721A80904BD1
:101AF8004FF400725A808E4B4FF400729A808C4BD0
:101B08007C22DA808A4B2A221A81894B20225A8128
:101B1800884B1B68874A92889A61874B1B68864A5C
:101B280092889A61854B1B68844A92889A61844B93
:101B38001B68834A92889A61824B1B68814A928803
:101B48009A61814B1B68804A92889A617F4B1B6817
:101B58007E4A92881A857E4B1B687D4A92881A8530
:101B68007C4B1B687B4A92881A857B4B1B687A4A98
:101B780092889A6100237B6000237B6002E07B6887
:101B880001337B607B6842F20F729342F7DD734B3F
:101B98001B68724A92881A8500237B6002E07B6882
:101BA80001337B607B6842F20F729342F7DD6B4B27
:101BB8001B686A4A92889A6100237B6002E07B680E
:101BC80001337B607B6842F20F729342F7DD644B0E
:101BD8001B681B8A9AB2624B9B8813409BB2002BEE
:101BE80054D0544B1B68534A92881A8500237B6053
:101BF80002E07B6801337B607B6842F20F7293429C
:101C0800F7DD4FF40051574800F0C2FD00237B6018
:101C180002E07B6801337B607B6842F20F7293427B
:101C2800F7DD444B1B68434A92889A6100237B6026
:101C380002E07B6801337B607B6842F20F7293425B
:101C4800F7DD3C4B1B683B4A92881A8500237B6072
:101C580002E07B6801337B607B6842F20F7293423B
:101C6800F7DD41F603013F4800F092FD00237B6059
:101C780002E07B6801337B607B6842F20F7293421B
:101C8800F7DD2C4B1B682B4A92889A61364B1B68F0
:101C98001B8A9AB2344B9B8813409BB2002B72D09C
:101CA800254B1B68244A92881A8500237B6002E032
:101CB8007B6801337B607B6842F20F729342F7DDE9
:101CC8004FF40051274800F063FD00237B6002E0D9
:101CD8007B6801337B607B6842F20F729342F7DDC9
:101CE800154B1B68144A92889A6100237B6002E0B6
:101CF8007B6801337B607B6842F20F729342F7DDA9
:101D08000D4B1B680C4A92881A8500237B6002E001
:101D18007B6801337B607B6842F20F729342F7DD88
:101D280041F603010F4800F033FD00237B6020E0FB
:101D3800AC010020C0010020D0010020C801002013
:101D480064010020D80100208401002094010020B3
:101D58008C010020740100207C010020B8010020C3
:101D68009C010020003800406C0100207B68013392
:101D78007B607B6842F20F729342F7DD9A4B1B68D7
:101D8800994A92889A61994B1B681B8A9AB2974B19
:101D98009B8813409BB2002B54D0954B1B68944AE8
:101DA80092881A8500237B6002E07B6801337B60A0
:101DB8007B6842F20F729342F7DD4FF400518D4871
:101DC80000F0E6FC00237B6002E07B6801337B6067
:101DD8007B6842F20F729342F7DD854B1B68844A99
:101DE80092889A6100237B6002E07B6801337B6004
:101DF8007B6842F20F729342F7DD7D4B1B687C4A89
:101E080092881A8500237B6002E07B6801337B603F
:101E18007B6842F20F729342F7DD41F60301754881
:101E280000F0B6FC00237B6002E07B6801337B6036
:101E38007B6842F20F729342F7DD6D4B1B686C4A68
:101E480092889A616C4B1B686B4A92881A850023AA
:101E58007B6002E07B6801337B607B6842F20F7233
:101E68009342F7DD4FF44841624800F091FC0023AB
:101E78007B6002E07B6801337B607B6842F20F7213
:101E88009342F7DD5C4B1B685B4A92889A6100239A
:101E98007B6002E07B6801337B607B6842F20F72F3
:101EA8009342F7DD544B1B68534A92881A850023E6
:101EB8007B6002E07B6801337B607B6842F20F72D3
:101EC8009342F7DD4DF203014A4800F061FC00231C
:101ED8007B6002E07B6801337B607B6842F20F72B3
:101EE8009342F7DD444B1B68434A92889A61434BFF
:101EF8001B68424A92881A8500237B6002E07B684F
:101F080001337B607B6842F20F729342F7DD4FF436
:101F18004841384800F03CFC00237B6002E07B68C5
:101F280001337B607B6842F20F729342F7DD334BDB
:101F38001B68324A92889A6100237B6002E07B68C2
:101F480001337B607B6842F20F729342F7DD2B4BC3
:101F58001B682A4A92881A8500237B6002E07B6806
:101F680001337B607B6842F20F729342F7DD4DF2DA
:101F78000301204800F00CFC00237B6002E07B6832
:101F880001337B607B6842F20F729342F7DD1B4B93
:101F98001B681A4A92889A61194B1B68184A9288DA
:101FA8001A8500237B6002E07B6801337B607B68D5
:101FB80042F20F729342F7DD4FF448410D4800F0AA
:101FC800E7FB00237B6002E07B6801337B607B6872
:101FD80042F20F729342F7DD094B1B68084A928858
:101FE8009A6100237B6010E0D0010020A40100204A
:101FF800C80100200038004064010020D8010020FA
:10200800840100207B6801337B607B6842F20F7299
:102018009342F7DD144B1B68134A92881A850023F4
:102028007B6002E07B6801337B607B6842F20F7261
:102038009342F7DD4DF203010C4800F0A9FB0023A1
:102048007B6002E07B6801337B607B6842F20F7241
:102058009342F7DD044B1B68034A92889A6100BFDC
:102068000837BD4680BD00BF84010020003800400D
:1020780080B500AF01210448FFF710FA034800F0CB
:102088004BF800BF80BD00BF00100040E0010020F9
:1020980080B586B000AF1D48FFF76EF8012110200B
:1020A800FEF726FF1A4B1B681A4AA2FB03239B0C58
:1020B8009BB2013BFB8244F62063BB60FB8ABB807A
:1020C8000023BB810023FB800023FB813B1D1946B5
:1020D8000E48FFF707F936233B7407237B74002368
:1020E800BB740123FB7407F110031846FEF7B4FB19
:1020F800012201210548FFF7B1F901210348FFF743
:102108008DF900BF1837BD4680BD00BF00100040E4
:102118003000002083DE1B4380B483B000AF7860BA
:102128007B685B695B6A1AB27B685A817B68B3F922
:102138000A309AB27B68B3F908309BB2D31A9BB2C3
:102148001AB27B689A817B68B3F90A207B681A8186
:102158007B681B697A68B2F90C201A447B681A619B
:102168007B6893ED007A7B68B3F90C3007EE903A00
:10217800F8EEE76AB0EE006AC6EE867ADFED106A1E
:1021880027EEA66A7B68D3ED016AC6EE267ADFEDF4
:102198000D6A67EEA66A7B68D3ED007A76EEE77A79
:1021A800DFED096A67EEA67A77EE277A7B68C3EDDA
:1021B800007A00BF0C37BD465DF8047B704700BF4E
:1021C8000000484200007042CDCCCC3D80B582B0C2
:1021D80000AF204B4FF000021A601E4B1E4A5A6097
:1021E8001C4B4FF080425A614FF08040FEF7C4FF0D
:1021F80001210120FEF77CFE03233B6002233B7193
:102208000123FB713B4619464FF09040FEF72EFA2A
:10221800012200214FF09040FEF7C1FA012201216E
:102228004FF09040FEF7BBFA0023002201214FF047
:102238008040FFF745F94FF6FF714FF08040FFF7F8
:10224800DFF801214FF08040FFF7E8F800BF0837BA
:10225800BD4680BDE00100200080CF4480B500AFBE
:10226800FFF708FCFFF732FC0023184680BD80B456
:1022780000AFFEE780B400AFFEE780B400AFFEE732
:1022880080B596B000AF734B7B657B6D4FF40072E1
:10229800C3F800227B6DD3F800227B6DC3F80C24B1
:1022A80000237A6DC2F808327A6DC2F8043200232E
:1022B8007A6DC2F814347A6DC2F810347B6D00223E
:1022C800C3F81C2401214FF40030FEF711FE012150
:1022D8000120FEF7CDFD072202214FF09040FEF7C6
:1022E8005EFA07220F214FF09040FEF758FA0223BA
:1022F80087F83830032387F83930002387F83A30D5
:10230800012387F83B3004237B6307F13403194624
:102318004FF09040FEF7AAF94FF400437B6307F1B2
:10232800340319464FF09040FEF7A0F94FF4E1331B
:10233800FB6300233B6400237B640023BB6400230E
:102348003B650C23FB6407F13C0319464248FFF741
:1023580003F94248FDF7F2FF414BBB6010233B6194
:102368004FF40073BB820023BB618023FB61002311
:102378003B6200237B620023BB624FF40053FB6285
:1023880000233B6307F1080319463448FEF792F827
:1023980000213248FEF7EBF8012202212F48FEF710
:1023A80002F94FF46040FEF747F900212B48FEF789
:1023B800C1F8012280212848FFF7B8F92948FDF71C
:1023C800BDFF294BBB607B6D03F50373FB600023E6
:1023D8003B610123BB820023BB618023FB61002397
:1023E8003B6200237B622023BB624FF40053FB62F5
:1023F80000233B6307F1080319461A48FEF75AF809
:102408004FF46000FEF718F901211648FEF792F81C
:10241800012240211048FFF789F91248FEF7B6F863
:1024280003461A467B6DC3F8182411233B71092310
:102438007B710023BB710123FB713B1D1846FEF71E
:102448000BFA01210448FFF743F900BF5837BD468E
:1024580080BD00BFFC010020004400408000024015
:10246800284400406C0002402444004080B582B0FB
:1024780000AF78607B68D3F81C34002B33D11C493B
:102488007B68D3F808327A681344CB607B68D3F84A
:1024980004227B68D3F808329A420FD914497B6822
:1024A800D3F804227B68D3F80832D31A4B607B68D0
:1024B800D3F804227B68C3F808220CE00C497B6837
:1024C800D3F800227B68D3F80832D31A4B607B68B4
:1024D8000022C3F808227B680122C3F81C240121CA
:1024E8000348FEF727F800BF0837BD4680BD00BF88
:1024F8008000024080B582B000AF78600B46FB7068
:102508007B68D3F804327A68F978D1547B68D3F8B9
:10251800043201337A68D2F80022B3FBF2F102FBED
:1025280001F29A1A7B68C3F804227868FFF79EFFC5
:1025380000BF0837BD4680BD80B582B000AF1A4BDA
:102548007B6080211948FFF751F90346012B26D1FA
:102558007B68D3F808227B68D3F804329A4219D0F2
:102568007B68D3F808327A68D35C9BB219460F4867
:10257800FFF7CAF87B68D3F8083201337A68D2F8D3
:102588000022B3FBF2F102FB01F29A1A7B68C3F84E
:10259800082204E0002206490448FFF7E5F800BFD6
:1025A8000837BD4680BD00BFFC0100200044004044
:1025B8000701070080B582B000AF144B7B604FF075
:1025C8000070FEF70FF80346012B0BD14FF0606047
:1025D800FEF732F800210E48FDF7ACFF7B680022B9
:1025E800C3F81C244FF08070FEF726F87B68D3F8F8
:1025F80004227B68D3F808329A4202D07868FFF741
:1026080035FF00BF0837BD4680BD00BFFC01002074
:102618008000024080B588B000AF2823BB61032347
:102628007B7702233B770023BB770223FB7707F1F5
:10263800180319465348FEF719F81023BB61032302
:102648007B7702233B770123BB770123FB7707F1D5
:10265800180319464B48FEF709F84FF40043BB61CD
:1026680003237B7701233B770023BB770023FB778A
:10267800062203214348FEF792F806220421414826
:10268800FEF78DF8062205213E48FEF788F801215D
:102698004FF40040FEF72CFC0023BB804FF48273FC
:1026A800FB804FF470633B8100237B810123BB8156
:1026B8004FF40073FB8110233B8200237B820723A6
:1026C800BB823B1D19463048FEF772FC01212E489B
:1026D800FEF7F9FC4FF42043BB6103237B77022309
:1026E8003B770023BB770223FB7707F118031946D2
:1026F8002448FDF7BBFF4FF48043BB6103237B777E
:1027080002233B770123BB770123FB7707F11803EB
:1027180019461C48FDF7AAFF05220D211948FEF7A6
:102728003EF805220E211748FEF739F805220F2139
:102738001448FEF734F801214FF48040FEF7D8FB27
:102748000023BB804FF48273FB804FF470633B819E
:1027580000237B810123BB814FF40073FB8110238D
:102768003B8200237B820723BB823B1D1946074817
:10277800FEF71EFC01210548FEF7A5FC00BF203727
:10278800BD4680BD00040048003C004000380040C1
:1027980080B582B000AF78600B467B8000BF022115
:1027A8007868FEF7CCFC0346002BF8D07B881946E6
:1027B8007868FEF7A8FC00BF01217868FEF7BFFC27
:1027C8000346002BF8D07868FEF7ACFC03461846A1
:1027D8000837BD4680BD0000DFF834D0002103E093
:1027E8000C4B5B58435004310B480C4B42189A422F
:1027F800F6D30B4A02E0002342F8043B094B9A4205
:10280800F9D300F013F800F075F9FFF727FDFEE79C
:1028180000400020742B0008000000204400002025
:102828004400002028060020FEE7000080B500AF25
:102838001F4A1F4BD3F8883043F47003C2F888301E
:102848001C4A1C4B1B6843F0010313601949194BC0
:102858005A68194B13404B60164A164B1B6823F0F5
:10286800847323F480331360124A124B1B6823F4D9
:10287800802313600F4A0F4B5B6823F4FE035360F9
:102888000C4A0C4BDB6A23F00F03D3620949094B4E
:102898001A6B0A4B13400B63064B00229A6000F038
:1028A8007BF8034B4FF000629A6000BF80BD00BF09
:1028B80000ED00E0001002400CC07FF8CCFC00FFE7
:1028C80080B485B000AF0023FB600023BB60002309
:1028D8007B6000233B602B4B5B6803F00C03FB60C1
:1028E800FB68042B07D0082B09D0002B2FD1264BCF
:1028F800264A1A602FE0244B244A1A602BE0214B09
:102908005B6803F47013BB601E4B5B6803F4803391
:102918007B60BB689B0C0233BB607B68002B06D1D5
:10292800BB681B4A02FB03F3174A136013E0154BFD
:10293800DB6A03F00F0301333B60144A3B68B2FBC8
:10294800F3F3BA6802FB03F30F4A136003E00E4B7C
:102958000E4A1A6000BF0B4B5B681B0903F00F039C
:102968000C4AD35CDBB2FB60074B1A68FB6822FA9F
:1029780003F3054A136000BF1437BD465DF8047BB6
:10298800704700BF001002403000002000127A009B
:1029980000093D003400002080B483B000AF00235C
:1029A8007B6000233B60334A324B1B6843F480331F
:1029B8001360304B1B6803F400333B607B680133C2
:1029C8007B603B68002B03D17B68B3F5A04FF0D147
:1029D800284B1B6803F40033002B02D001233B6013
:1029E80001E000233B603B68012B3CD1224B1222C3
:1029F8001A60204A1F4B5B6853601E4A1D4B5B6878
:102A080053601C4A1B4B5B6843F480635360194A4C
:102A1800184B5B6823F47C135360164A154B5B68AC
:102A280043F4A0235360134A124B1B6843F080738E
:102A3800136000BF0F4B1B6803F00073002BF9D025
:102A48000C4A0C4B5B6823F003035360094A094B9B
:102A58005B6843F00203536000BF064B5B6803F0FA
:102A68000C03082BF9D100BF0C37BD465DF8047B79
:102A7800704700BF001002400020024080B584B0BB
:102A880000AF1848FEF778FB01214FF40030FEF73D
:102A98000FFA154B1B68154AA2FB03239B0C9BB22C
:102AA800013BFB814FF6FF737B60FB893B80002372
:102AB8003B8100237B8000237B813B4619460948E4
:102AC800FEF710FC0A4B00221A6000210548FEF7A9
:102AD80089FC01210348FEF7A1FC00BF1037BD4661
:102AE80080BD00BF004401403000002083DE1B434E
:102AF8002006002070B50D4E0D4CA41BA410002517
:102B0800A54209D10B4E0C4C00F020F8A41BA410D0
:102B18000025A54205D170BD56F8253098470135E6
:102B2800EEE756F8253098470135F2E76C2B000898
:102B38006C2B00086C2B0008702B0008024403461D
:102B4800934200D1704703F8011BF9E7F8B500BFBD
:102B5800F8BC08BC9E467047F8B500BFF8BC08BC76
:042B68009E467047CE
:042B6C00AD010008AF
:042B700089010008CF
:102B7400000000000102030401020304060708091F
:102B8400010002000400060008000A000C00100006
:102B94002000400080000001000000000000000050
:102BA40000A24A0400000000000000000102030427
:042BB40006070809FF
:04000005080027E1E7
:00000001FF
